{
  "contractName": "vote",
  "abi": [
    {
      "constant": true,
      "inputs": [],
      "name": "Result",
      "outputs": [
        {
          "internalType": "bool",
          "name": "",
          "type": "bool"
        }
      ],
      "payable": false,
      "stateMutability": "view",
      "type": "function"
    },
    {
      "constant": true,
      "inputs": [],
      "name": "deadline",
      "outputs": [
        {
          "internalType": "uint256",
          "name": "",
          "type": "uint256"
        }
      ],
      "payable": false,
      "stateMutability": "view",
      "type": "function"
    },
    {
      "constant": true,
      "inputs": [],
      "name": "owner",
      "outputs": [
        {
          "internalType": "address",
          "name": "",
          "type": "address"
        }
      ],
      "payable": false,
      "stateMutability": "view",
      "type": "function"
    },
    {
      "constant": false,
      "inputs": [
        {
          "internalType": "bool",
          "name": "choice",
          "type": "bool"
        }
      ],
      "name": "voter",
      "outputs": [],
      "payable": false,
      "stateMutability": "nonpayable",
      "type": "function"
    }
  ],
  "bytecode": "0x6080604052336000806101000a81548173ffffffffffffffffffffffffffffffffffffffff021916908373ffffffffffffffffffffffffffffffffffffffff16021790555062015180420160015534801561005957600080fd5b506102c2806100696000396000f3fe608060405234801561001057600080fd5b506004361061004c5760003560e01c806329dcb0cf146100515780638da5cb5b1461006f578063f4e5d599146100b9578063fe0bcf8a146100db575b600080fd5b61005961010b565b6040518082815260200191505060405180910390f35b610077610111565b604051808273ffffffffffffffffffffffffffffffffffffffff1673ffffffffffffffffffffffffffffffffffffffff16815260200191505060405180910390f35b6100c1610136565b604051808215151515815260200191505060405180910390f35b610109600480360360208110156100f157600080fd5b81019080803515159060200190929190505050610149565b005b60015481565b6000809054906101000a900473ffffffffffffffffffffffffffffffffffffffff1681565b600460009054906101000a900460ff1681565b600154421061015757600080fd5b600560003373ffffffffffffffffffffffffffffffffffffffff1673ffffffffffffffffffffffffffffffffffffffff16815260200190815260200160002060009054906101000a900460ff16156101ae57600080fd5b60026000815480929190600101919050555080600560003373ffffffffffffffffffffffffffffffffffffffff1673ffffffffffffffffffffffffffffffffffffffff16815260200190815260200160002060006101000a81548160ff021916908315150217905550600115158115151415610237576003600081548092919060010191905055505b6001600280548161024457fe5b04016003541061026e576001600460006101000a81548160ff02191690831515021790555061028a565b6000600460006101000a81548160ff0219169083151502179055505b5056fea265627a7a72315820e3e56e5f3f6ddc105a916278ec4e5f4b6083478d819878e2bf15de5b9289636d64736f6c63430005100032",
  "source": "// SPDX-License-Identifier: GPL-3.0\r\n\r\npragma solidity ^0.5.0;\r\n\r\n\r\ncontract vote {\r\n\r\n    address public owner = msg.sender;\r\n    uint256 public deadline  = block.timestamp + 1 days;\r\n    uint256 nbrevotes;\r\n    uint256 nbrevotesPositive;\r\n    bool public Result;\r\n    mapping(address =>  bool) ListVotes;\r\n\r\n    \r\n    function voter (bool choice ) public{\r\n\r\n        require(block.timestamp < deadline);\r\n        require(!ListVotes[msg.sender]);\r\n        nbrevotes++;\r\n        ListVotes[msg.sender]=choice;\r\n        if(choice == true){\r\n        nbrevotesPositive++;\r\n              }\r\n\r\n    if(nbrevotesPositive >= (nbrevotes/2)+1){\r\n        Result=true;\r\n    }\r\n    else{\r\n        Result=false;\r\n    }\r\n\r\n    }\r\n\r\n}\r\n \r\n\r\n\r\n",
  "sourcePath": "C:\\Users\\sat\\TPGLSIB\\contracts\\votes.sol",
  "compiler": {
    "name": "solc",
    "version": "0.5.16+commit.9c3226ce.Emscripten.clang"
  },
  "schemaVersion": "3.4.3",
  "updatedAt": "2021-12-12T15:52:42.527Z",
  "devdoc": {
    "methods": {}
  },
  "userdoc": {
    "methods": {}
  }
}